:100000000C942A000C9448000C9496000C943C002C
:100010000C943C000C943C000C943C000C943C0070
:100020000C943C000C943C000C943C000C943C0060
:100030000C943C000C943C000C943C000C943C0050
:100040000C943C000C943C000C943C000C943C0040
:100050000C943C0011241FBECFE5D4E0DEBFCDBF21
:1000600010E0A0E6B0E001C01D92A236B107E1F7B2
:100070000E943E000C94E4000C9400008FEF87BBBC
:1000800011BA18BA8AE085BF80EC8BBF7894FFCF95
:100090001F920F920FB60F9211242F933F938F93BD
:1000A0009F93EF93FF9381E088BB80ED97E028EC6E
:1000B00030E0F9013197F1F70197D9F718BA80913B
:1000C000600090916100019791F484E088BB80E327
:1000D00095E728EC30E0F9013197F1F70197D9F76E
:1000E00018BA109261001092600080E113C088E09D
:1000F00088BB80E395E728EC30E0F9013197F1F710
:100100000197D9F718BA81E090E09093610080934D
:10011000600080E288BBFF91EF919F918F913F91AA
:100120002F910F900FBE0F901F9018951F920F9256
:100130000FB60F9211242F933F938F939F93EF93BA
:10014000FF9382E088BB80ED97E028EC30E0F90176
:100150003197F1F70197D9F718BA80916000909123
:100160006100019791F484E088BB80E395E728EC77
:1001700030E0F9013197F1F70197D9F718BA1092E9
:1001800061001092600080E113C088E088BB80E3CA
:1001900095E728EC30E0F9013197F1F70197D9F7AD
:1001A00018BA81E090E0909361008093600080E253
:1001B00088BBFF91EF919F918F913F912F910F906D
:0C01C0000FBE0F901F901895F894FFCF11
:00000001FF
